:020000040800F2
:10000000F80C00207902000801200008751A000889
:10001000FD1F0008A71800088B3100080000000031
:10002000000000000000000000000000452A000859
:10003000311900080000000053240008292C000892
:10004000930200089302000893020008930200083C
:10005000930200089302000893020008930200082C
:10006000930200089302000893020008930200081C
:10007000930200089302000893020008930200080C
:1000800093020008930200089302000893020008FC
:1000900093020008930200089302000893020008EC
:1000A00093020008930200089302000893020008DC
:1000B000930200088D2C00089302000893020008A8
:1000C00093020008930200089302000893020008BC
:1000D00093020008712E000893020008C52E000844
:1000E000930200089302000893020008930200089C
:1000F000930200089302000893020008930200088C
:10010000930200089302000893020008930200087B
:10011000930200089302000893020008C92C00080B
:10012000930200089302000893020008930200085B
:1001300000F002F800F090F80AA090E8000C824469
:100140008344AAF10107DA4501D100F085F8AFF246
:10015000090EBAE80F0013F0010F18BFFB1A43F0A5
:1001600001031847F866000018670000103A24BF22
:1001700078C878C1FAD8520724BF30C830C144BF0C
:1001800004680C607047000000230024002500264E
:10019000103A28BF78C1FBD8520728BF30C148BFEA
:1001A0000B6070476E2900F0DB82702900F00D8132
:1001B000662904F04186652904F03E86672904F02B
:1001C0003B866129AFF3008003681B0A28BF41F01A
:1001D0008001692900F08882642900F085827529F0
:1001E00000F082826F2900F0D383782900F0D98053
:1001F000E92900F06D83E42900F06A83F52900F015
:100200006783EF2900F0D083F82900F0D8800368D5
:10021000DB0928BF41F08001632900F0DC827329EB
:1002200000F0E182E32900F02986F32900F02E8610
:10023000002070471FB500F083FE0400002000215D
:1002400004F02CF8401C60600020002104F010F83D
:10025000E0601FBD10B510BD00F044FE1146FFF771
:10026000E9FF03F0F9F800F01DFF03B4FFF7F2FF18
:1002700003BC03F072F800000948804709480047B2
:10028000FEE7FEE7FEE7FEE7FEE7FEE7FEE7FEE746
:10029000FEE7FEE704480549054A064B70470000A3
:1002A0002D2C000831010008F8060020F80C002071
:1002B000F8080020F8080020704700001CB50C4624
:1002C000064B7B4469460090204600F062FA0446E3
:1002D0000020694600F070FA20461CBDF3040000BF
:1002E0000FB4044910B503AA029800F081FA10BCBB
:1002F0005DF814FBAC00002070B50C460546012AE1
:1003000005D02878800600D5EA69002302E00123A1
:1003100005E05B1C934202D2E05C0028F9D1A86999
:10032000E618C01AA861286A18442862284600F016
:1003300049F904E0D5E9012114F8010B9047B442D2
:10034000F8D3284600F054F970BD0000F0B40D4613
:100350000188090502D5214C7C4402E01F4C7C44F5
:100360000E34002100F1240608E002F00F07120904
:10037000E75D42EA03721B097754491C52EA0307FE
:10038000F3D102780023120704D5702D06D009B1ED
:10039000022311342246F0BC00F04DB90123103481
:1003A000F8E770B504460D462146106800F03AF9AA
:1003B000024629462046BDE870400023C6E7D21D0C
:1003C00022F00703D3E90023C0E70368126843F073
:1003D000200303600823C3610023B7E7966300008E
:1003E0002DE9F05F894604464FF0000ADFF874B14A
:1003F000FB44C0F820A02046E1688847002874D05C
:10040000252806D0D4E901219047206A401C2062AB
:10041000F1E700265F462046E16888472028054628
:1004200007DB312D05D2781910F8200C08B10643EE
:10043000F1E7B00701D526F00406C4F81CA0002798
:10044000C4F818A02A2D09D0284602F07FFF38B33F
:1004500004EB8708303DC8F8185019E059F8041B20
:10046000204604EB87029161E1688847012F054629
:1004700018D1E069002820DA26F020061DE0D8F81F
:10048000180000EB800005EB40003038C8F8180079
:100490002046E1688847054602F058FF0028EED163
:1004A000012F0AD02E2D08D12046E16888477F1CF5
:1004B0000546022F46F02006C4DBA069002803DAB7
:1004C000404246F00106A061F00701D026F0100678
:1004D0006C2D0BD0682D09D04C2D39D06A2D35D01C
:1004E000742D35D07A2D33D016E038E0E1682F46F0
:1004F00020468847B842054609D16C2F26D04FF4D4
:100500008060E168064320468847054604E06C2F7A
:100510001AD04FF4807006430DB3A5F1410019289D
:1005200002D8203546F400664A4629462046266011
:100530004E46FFF737FE80B101280BD0F61D26F09E
:10054000070000F1080956E74020E4E78020D8E7DB
:100550000020D6E706F104094DE7284652E7206A55
:10056000BDE8F09F2663000010B5431C02E010F8C0
:10057000011B71B18107FAD14FF0013202C88C1A08
:100580008C4314EAC211F9D0C01A0A0603D0C01E67
:1005900010BDC01A10BD0A0401D0801E10BD090292
:1005A000FCD0401E10BD704770477047704710B5B3
:1005B00000F004FA006810BD10B5044600F0FEF922
:1005C000046010BD70B5044685690068C10601D598
:1005D000302600E02026C00707D070BDD4E90121F5
:1005E00030469047206A401C20626D1EF6D570BDD3
:1005F00070B5044685690078C00707D170BDD4E99D
:10060000012120209047206A401C20626D1EF6D5F3
:1006100070BD09684A0501D540B27047C905FCD5CF
:1006200000B2704709684A0501D5C0B27047C905D4
:10063000FCD580B270472DE9F0470D4699469246A9
:10064000044600F124080168880604D5E06921F019
:100650001001216000E00120A84201DD471B00E0FD
:100660000027A1697A1902EB0900081AA061207815
:10067000C00602D42046FFF7A5FF002608E0D4E913
:1006800001211AF806009047206A401C761C20625F
:100690004E45F4DB2078C0060AD52046FFF792FFCE
:1006A00006E0D4E9012130209047206A401C2062F6
:1006B000381EA7F10107F4DC07E0D4E9012118F89E
:1006C00005009047206A401C2062281EA5F1010504
:1006D000F3DC2046FFF78CFF2078000602D50220CD
:1006E000BDE8F0870120FBE72DE9F0410646002434
:1006F00010687529314616A510D0FFF78AFF00282B
:1007000002DA404213A507E031688A0701D512A535
:1007100002E0490704D511A5012401E0FFF782FF9B
:1007200000210A2206F1240709E0B0FBF2FCB0FB2D
:10073000F2F302FB1C00303078541846491C0028A4
:10074000F3D123462A463046BDE8F041FFF773BF98
:10075000000000002D0000002B0000002000000021
:1007600011680268006A530501D508700AE0D305D4
:1007700001D5088006E0130603D5C217C1E90002BF
:1007800000E008600120704701694A1C0261087896
:10079000704700B58FB0CDE90131002105910549C1
:1007A0007944CDE9031011466846FFF719FE0FB0F2
:1007B00000BD0000E5FFFFFF0A6802F8010B0A60B8
:1007C000704710B5436913B1AFF3008001E0FFF744
:1007D00093FD012010BD127800F124010A7000225F
:1007E0004A700122EDE711684FF0FF32E9E700009F
:1007F000074B70B50D467B44FFF7CBFF04462846F8
:1008000000F048FB10B14FF0FF3070BD204670BDC6
:10081000432C00002DE9FF5F15468A460446DFF8A9
:10082000AC80F8440027D8E900103E46CDE900101E
:1008300010E03AF816106A4602A800F02FFB411C9F
:1008400007D02178890603D5E269391891420DD87D
:100850000744761C2078800602D5E069B84205DDA1
:10086000AE42E6DB3AF816000028E2D1A069C01BD0
:10087000A0612046FFF7A6FED8E90010CDE90010E0
:10088000002017E03AF818106A4602A800F006FBAC
:10089000B0F1FF3F81460BD000250DF1080B05E0BC
:1008A000D4E901211BF8050090476D1C4D45F7D395
:1008B00008F10100B0428046E4DB206A384420623F
:1008C0002046FFF795FEBDE8FF9F0000925F000005
:1008D0002DE9F0418046D21D22F007020025D2E921
:1008E0000002F52915A614D0011E72F1000106DAE6
:1008F0000023D0EB030063EB020211A608E0D8F856
:1009000000108B0701D50FA602E0490701D50EA6FE
:1009100001251146002408F1240704E000F052F8F4
:1009200030323A55641C50EA0102F7D12B46324668
:1009300021464046BDE8F041FFF77DBE00000000C3
:100940002D0000002B0000002000000030B400212A
:1009500000F1240408E002F00705D208303542EA2D
:100960004372DB086554491C52EA0305F3D104685D
:10097000002310A2250708D504F020040C4304D05E
:10098000C46901230CA2641EC46130BCFFF753BECE
:1009900010B5044621461068FFF744FE0246204683
:1009A000BDE810400023D1E7D21D22F00701D1E9B4
:1009B0000023CBE700000000300000000048704733
:1009C0009406002030B5B0F10A024FEA900E71F1A2
:1009D00000034EEA817EB0EB0E0061EB91014FEA1D
:1009E000101E4EEA017E10EB0E0041EB11114FEA92
:1009F000102E4EEA016E10EB0E0041EB11214FEA72
:100A0000104E4EEA014E10EB0E0041EB1141401822
:100A100041F100014FEAD00040EA41704FEAD101B4
:100A200010EB80054FEA810444EA907444EB010422
:100A30006D1944EB0404521BA3414FF0000348BF5F
:100A40000A3200D530BD401C41F1000130BD704775
:100A50002DE9FF4F0C461E464FF0FF378BB0D2E911
:100A60000001DDF860800A908A46C1F30A5505B995
:100A70003D46002108464FF00000BAF1000F00F497
:100A8000400005DA00EB80004FF4400101EA50001D
:100A90004FEA9059B9F1010F00DDB9460A9850EAC2
:100AA0004A000ED044F61050A5F2FF3545432F14EE
:100AB000B8F1000F1ED07542291E1EDDC9F10002DB
:100AC0001CE0B8F1010F4FF0000001D0302103E02D
:100AD000F24305E02154401CB042FBDB30460022CB
:100AE000002121540B99C1F80880C1E900200FB002
:100AF000BDE8F08FBD1B6D1CDEE74A4600DA694297
:100B000006A800F061FA06AB93E8070003AB83E8A0
:100B1000070050460A9900F00BFB8DE80700A0F58E
:100B200000501F3800900398002D09DD42F21F018C
:100B30004A46084403A90390684600F06AFD08E0AD
:100B4000A0F500504A461F3803A90390684600F0FC
:100B500074FD8DE807000004000C03D04FF0FF3057
:100B6000410800E01046B8F1000F03D000220092C7
:100B700015461EE0751E05D4FFF724FF303262557E
:100B80006D1EF9D5B3460122084302D000227F1C16
:100B900004E02078302801D100227F1E002A099726
:100BA00086D01DE0112D07DAFFF70CFF30326255B9
:100BB0006D1C50EA0102F5D1084302D00098C8B17B
:100BC0000EE00021681E05E0235C625C6354225441
:100BD000401E491C8142F7DBAB46A81B401E099012
:100BE000002004F80B000B98099AC0F80880C0E9AF
:100BF000002B7CE711264FF0000859E72DE9F04F54
:100C000088460446D21D22F0070191B0D1E90001C7
:100C1000CDE90A0102F010FB02460B98C00F01D08B
:100C20002D2007E02068810701D52B2002E020213C
:100C300001EAC000032A099001D0072A05DB034618
:100C40004146204600F080F90BE12078800601D56E
:100C5000E06900E00620B8F1650F814606D0B8F1E2
:100C6000660F18D0B8F1670F70D131E00020B9F1EC
:100C7000110F009001DB112301E009F101030AAA21
:100C800001A90CA8FFF7E4FEDDE90C70002609F1CC
:100C90000105834647E001204B4600904FF0004796
:100CA0000AAA01A90CA8FFF7D3FEDDE90DB00C9943
:100CB0005D46002610B909F101000D18B9EB0500D9
:100CC00003D4C0F1FF3609F10105A5EB09002BE0C3
:100CD000B9F1010F01DA4FF001090020B9F1110F4C
:100CE0000090484601DD112300E003460AAA01A94D
:100CF0000CA8FFF7ADFEDDE90C704D4600268346DB
:100D0000207800070AD4AB4500DA5D4601A8012D22
:100D100004DD411911F8011C302907D04F4502DAD2
:100D200017F1040F04DA012082460FE06D1EEEE792
:100D3000002F02DCED1B3E4403E0781CA84200DDDE
:100D40007D1CB81B00F1010A4FF000472078000716
:100D500003D4AA4501DB4FF0FF3A0021B7F1004F61
:100D60000DF143088DF8431024D002202B23002FCF
:100D700001DA7F422D230A21021EA0F1010000DCCE
:100D80005FB197FBF1FC97FBF1F201FB1C7C17466E
:100D90000CF1300C08F801CDEEE7A8F1010003706A
:100DA0002188090501D5452100E06521A0F1010850
:100DB00000F8011C09980FA9A1EB0807FF1D00B15D
:100DC0000120411901EBEA70A1693844081A401E5C
:100DD000A0612078C00602D42046FFF7F3FB0998F3
:100DE00028B1D4E901219047206A401C2062207874
:100DF000C00622D52046FFF7E5FB1EE0002E04DBEF
:100E0000B34502DD01A8805D00E03020D4E9012176
:100E10009047206A401C2062761CAAF101005FEA1C
:100E2000000A0AD100F08CF8C0680168405CD4E97F
:100E300001219047206A401C2062281EA5F101056F
:100E4000DCDC07E0D4E9012118F8010B9047206AA7
:100E5000401C2062381EA7F10107F3DC2046FFF793
:100E6000C7FB032011B043E610B5436913B1AFF3DC
:100E7000008001E0FFF7CEFC012010BD128800F1D8
:100E8000240182840022C2840122EDE711684FF020
:100E9000FF32E9E7007B00F08000704770B516462E
:100EA0000C46054600F044F8036893F80101012858
:100EB00006D0FF2C0FD8185D68B101202C7070BDD2
:100EC000D3F807013246214603F2071303442846AC
:100ED000BDE8704018474FF0FF3070BD00487047C4
:100EE000940600207546FFF7F9FFAE4605006946F7
:100EF000534620F00700854618B020B5FFF7CAF921
:100F0000BDE820404FF000064FF000074FF000080A
:100F10004FF0000B21F00701AC46ACE8C009ACE88B
:100F2000C009ACE8C009ACE8C0098D4670470000B4
:100F300010B500F005F8001D10BD00BF61330000C2
:100F400000487047B40600202DE9F0411F460446D2
:100F500003260168072A01F4006004DB08B116A526
:100F600005E016A503E008B115A500E015A521F0E0
:100F700010002060A069C01EA0610FB1401EA061DA
:100F80002046FFF71FFB4FB1D4E9012138469047B7
:100F9000206A401C2062C01C206206E0206AFAE73A
:100FA000D4E9012115F8010B9047761EF8D22046AE
:100FB000FFF71EFBBDE8F0814E414E006E616E00F2
:100FC000494E4600696E66002DE9F0478146164697
:100FD0008AB0334878440DC88DE80D003048784415
:100FE000801C03AC0DC884E80D0041F69B3008441A
:100FF000372190FBF1F290FBF1F5A5F1800501FBA3
:1010000012041B3C02D56442012000E00020DFF8FE
:1010100090A080460027FA44AAF1BE0A0DE0E0073E
:1010200009D03246684607EB47010AEB810100F020
:1010300004FB8DE8070064107F1C002CEFD1184FD3
:101040007F44AC3F18E0E80714D007EB04100DF123
:10105000180A90E80E008AE80E00C068F04201D13C
:1010600098190890324606A903A800F0E6FA03ABE7
:1010700083E807006D10641C002DE4D132466946F8
:10108000B8F1000F03A802D000F0C3FA01E000F0AD
:10109000D4FAC9E90001C9F808200AB0BDE8F08710
:1010A0006C5800000446AFF300802046FFF7DDF8DF
:1010B0004FF0013C50F8042B51F8043B9A4221D1E7
:1010C000A2EB0C03934313EACC1317D150F8042B73
:1010D00051F8043B9A4215D1A2EB0C03934313EA57
:1010E000CC130BD150F8042B51F8043B9A4209D190
:1010F000A2EB0C03934313EACC13DBD04FF00000B8
:10110000704700BFD01A01BAB1FA81F101F018019D
:1011100022FA01F0CB40C1F12001DBB2C0B2C01A0B
:101120002CFA01F3D11A914311EAC311E6D17047A9
:101130005FEA400C08BF91F0000F4FEA8C234FEAA2
:10114000C12243EA51514FEA1C5018BF00F5F0404C
:101150004FEA300018BF41F000415FEA6C5C00F0DC
:101160002980BCF1FF3F08BF40F080407047130C5E
:1011700006BF12044FF0100C4FF0000C130E04BF0A
:1011800012020CF1080C130F04BF12010CF1040C35
:10119000930F04BF92000CF1020CD30F04BF520056
:1011A0000CF1010C11464FF00002A0F11F00A0EB62
:1011B0000C00704711F0004F08BF704731F000413C
:1011C0003FF4D5AF0B0C06BF09044FF0100C4FF0E5
:1011D000000C0B0E04BF09020CF1080C0B0F04BF2E
:1011E00009010CF1040C8B0F04BF89000CF1020CF7
:1011F000CB0F04BF49000CF1010CCCF12003A0EB94
:101200000C0022FA03F302FA0CF241EA030100F1A6
:101210000100704720F07F4C80EA030023F07F47F5
:10122000ACEB070303F57C5300F0004003F1FF0330
:101230002DE980494FEA154B09B44FEA144325EADA
:101240000B4E24EA03480FF2042606EB1327490845
:101250003E785FEA320203FB0667C7F5000707FB2B
:1012600006F64FEA54374FEAD64606F1020607FB68
:10127000066CCCF1005C4FEA1C472CEA074C07FBDC
:1012800006F40CFB06F504EB15464FEA961634BF40
:1012900000204FF000404FEAD13706FB07FC4FEA31
:1012A0001C4C0CFB0BF7D21B03FB0CF761EB07018B
:1012B0000CFB0EF7B0EB074072EB17420CFB08F784
:1012C00034BFA2EB0742B2EB074261EB17414FEA92
:1012D0000C444FEA910706FB07FC4FEA1C4C0CFB41
:1012E0000BF7B0EBC74072EB573203FB0CF734BF80
:1012F000A2EBC742B2EBC74261EB57310CFB0EF7D2
:10130000B0EBC70072EB57720CFB08F734BFA2EBCF
:10131000C702B2EBC70261EB5771039F4FEA8161CD
:1013200041EA921104EBCC044FEAD1374FEA8262D2
:1013300006FB07FC42EA90124FEA80604FEA1C4C21
:101340000CFB0BF7D21B03FB0CF761EB07010CFB4B
:101350000EF7B0EB074072EB17420CFB08F734BFF7
:10136000A2EB0742B2EB074261EB17414FEA8C5503
:101370004FEA910704EB9C2406FB07FC4FEA1C4C48
:101380000CFB0BF7B0EBC74072EB573203FB0CF7CB
:1013900034BFA2EBC742B2EBC74261EB57310CFB43
:1013A0000EF7B0EBC70072EB57720CFB08F734BFB7
:1013B000A2EBC702B2EBC70261EB577115EB4C25EC
:1013C0004FEA816141EA92114FEA82624FEAD137D6
:1013D00042EA901206FB07FC44F100044FEA8060E9
:1013E0004FEA1C4C0CFB0BF7D21B03FB0CF761EB19
:1013F00007010CFB0EF7B0EB074072EB17420CFB3A
:1014000008F734BFA2EB0742B2EB074261EB17418A
:1014100015EB1C154FEA813141EA92414FEA8232C5
:1014200042EA90424FEA80304FEA0C7644F10004E1
:1014300048EA03434EEA0B484FF0000EB2EB080CAB
:1014400071EB030724BF624639464EEB0E0E4FF098
:10145000000B0018524149414BEB0B0BB2EB080C4F
:1014600071EB03077BF1000B24BF624639464EEB5C
:101470000E0E4FF0000B0018524149414BEB0B0B85
:10148000B2EB080C71EB03077BF1000B24BF624643
:1014900039464EEB0E0E51EA020718BF46F0010620
:1014A00016EB0E7655F1000254F1000103D5BDE8AC
:1014B0008901BDE80088BDE88901BDE80048B6198A
:1014C000524141EB0101A3F10103704780807F7E0F
:1014D0007D7C7B7A797877767675747372717170AA
:1014E0006F6E6E6D6C6C6B6A6A696868676666655C
:1014F0006464636362616160605F5F5E5E5D5D5CEA
:101500005C5B5B5A5A59595858575756565555555A
:101510005454535352525251515050504F4F4F4EBA
:101520004E4D4D4D4C4C4C4B4B4B4A4A4A49494908
:10153000484848474747474646464545454444444A
:10154000444343434342424242414141002B26D45B
:10155000770021D01CB54FEA370703B44FF01000D5
:101560004FF010014FF000000FBCBDE810400BF130
:10157000010BBBF1010F08BF5FEA170722BF12F191
:10158000010211F101014FF0004143F1000300F0AD
:10159000004043EA00007047F9D35708DAE746EA0B
:1015A000064613F1400F4FEA16461FDD13F1200FD8
:1015B000DFBF16430A46002120335B42C8D0C3F187
:1015C000200746EA064602FA07F74FEA164646EAB9
:1015D0000706C3F1200722FA03F201FA07F721FAFE
:1015E00003F14FF0000342EA0702B1E746EA0206C0
:1015F00046EA06464FEA164646EA0106BCBF46EAF8
:101600000646360C4FF000034FF000024FF0000189
:101610009EE72DE9C048934630B491E8380007C8EA
:1016200031EA400C48BF34EA430C03D5FFF7F2FD22
:10163000FFF78CFFF0BCBDE800882DE9C048934659
:1016400030B491E8380007C810F0804F08BF13F09D
:10165000804F03D100F005F8FFF778FFF0BCBDE83C
:10166000008820F07F4780EA030023F07F4C07EBDF
:101670000C03A3F57C5300F00040A3F1FE0392F0AD
:10168000000F00F0B38095F0000F00F077802DE997
:1016900001494FEA11404FEA144621EA004800FB95
:1016A00006FC24EA064708FB06F607FB08F800FBE1
:1016B00007F718EB06484CEB164C4FEA124B18EBA9
:1016C00007484FEA15464CEB174022EA0B4E0BFB3E
:1016D00006FC25EA06470EFB06F607FB0EFE0BFB93
:1016E00007F71EEB064E4CEB164C4FF000061EEBB8
:1016F000074E4CEB174B18EB0B0840F1000018EBB2
:101700000E0B58EB000840F100008F1A4FF000015B
:101710003CBFC943661B14BFB5EB040C00213CBFA2
:10172000C943F61B4FEA17444EEA8E0E27EA0445DA
:101730004FEA1C4704FB07622CEA074C05FB07F73E
:101740000CFB05F604FB0CFC16EB074642EB1742BC
:1017500016EB0C4642EB1C421BEB060658EB020252
:10176000414146EA9E0601D5BDE80189B6195241BC
:1017700041EB0101A3F10103BDE801894FEA1445E2
:101780004FEA114724EA054621EA074C05FB07F416
:1017900006FB07F70CFB06F105FB0CFC11EB074100
:1017A00044EB17444FEA124711EB0C4144EB1C4445
:1017B00022EA074C05FB07F206FB07F70CFB06F6CF
:1017C00005FB0CFC16EB074642EB174216EB0C46EA
:1017D00042EB1C456A1854F1000148BF7047B61926
:1017E000524141EB0101A3F10103704795F0000F55
:1017F00037D04FEA11424FEA144721EA024624EA61
:10180000074C02FB07F106FB07F70CFB06F402FB93
:101810000CFC14EB074441EB17414FEA154714EB5E
:101820000C4441EB1C4125EA074C02FB07F506FB83
:1018300007F70CFB06F602FB0CFC16EB074645EB24
:10184000174516EB0C4645EB1C42121951F10001ED
:1018500048BF7047B619524141EB0101A3F10103A2
:1018600070474FEA14454FEA114724EA054621EA3A
:10187000074C05FB07F106FB07F70CFB06F24FF0E0
:10188000000605FB0CFC12EB074241EB174112EB83
:101890000C4251EB1C4148BF7047921841EB0101CB
:1018A000A3F10103704700BFFEE72DE9F0410746B1
:1018B000884615460421052000F02DF8002101205E
:1018C00001F066FC80210A2001F0BDF8002405E04B
:1018D000395D092001F05CFC601CC4B24445F7DBB3
:1018E0000321012001F054FCFF2400BF052000F07B
:1018F000E1FF0646601EC4B21CB106F004000028D9
:10190000F4D0222000F0D6FF2870212000F0D2FF72
:101910006870BDE8F08170B505460C46284600F0B9
:10192000C9FF064626EA0401284601F031FC70BDD5
:1019300070472DE9F04102460025002600200023D3
:101940000024002791F803C00CF00F0591F803C0A4
:101950000CF0100CBCF1000F03D091F802C04CEA5F
:10196000050591F800C0BCF1000F31D014680020CB
:101970002BE04FF0010C0CFA00F3B1F800C00CEAB8
:1019800003069E4220D183004FF00F0C0CFA03F7A0
:10199000BC4305FA03FC4CEA040491F803C0BCF113
:1019A000280F06D14FF0010C0CFA00FCC2F814C04D
:1019B0000AE091F803C0BCF1480F05D14FF0010CCB
:1019C0000CFA00FCC2F810C0401C0828D1D31460E7
:1019D000B1F800C0BCF1FF0F34DD546800202EE0E8
:1019E00000F1080C4FF0010808FA0CF3B1F800C040
:1019F0000CEA03069E4221D183004FF00F0C0CFA33
:101A000003F7BC4305FA03FC4CEA040491F803C055
:101A1000BCF1280F05D100F1080C08FA0CF8C2F847
:101A2000148091F803C0BCF1480F07D100F1080CF5
:101A30004FF0010808FA0CF8C2F81080401C082882
:101A4000CED35460BDE8F0810246002093680B407D
:101A50000BB1012000E00020704702460020D3684F
:101A60000B400BB1012000E000207047416170473E
:101A70000161704700BFFEE710B5044614B10120B4
:101A80002C4908702B480078002837D001212A48BB
:101A9000FFF7DAFF01280ED010212848FFF7D4FF06
:101AA00048B108212548FFF7CFFF20B10421234882
:101AB000FFF7CAFF10BB00201E4908700A2001F082
:101AC00071FC01211C48FFF7BFFF012801D1042050
:101AD00010BD04211948FFF7B7FF08B90320F7E745
:101AE00008211648FFF7B0FF08B90220F0E71021DF
:101AF0001248FFF7A9FFD0B90120E9E701210E48FC
:101B0000FFF7A2FF98B910210C48FFF79DFF0128AD
:101B10000DD108210948FFF797FF012807D10421BB
:101B20000648FFF791FF012801D102490870002003
:101B3000CEE70000A8000020000801400018014086
:101B400000B51648808849F24131884211D01348C7
:101B5000808846F6040188420BD01048808845F200
:101B60001031884205D00D48808841F663118842C3
:101B700003D1292000F00AFA0FE00848808845F2D6
:101B80001051884204D14FF4245000F0FFF904E0D2
:101B900040F27311072000F0FFF900BD8406002019
:101BA00030B503460C4615465A48808849F2413103
:101BB000884205D05748808845F21031884214D1B8
:101BC0005449488900F0E2F9181200F0D9F9D8B266
:101BD00000F0D6F94F49888900F0D8F9201200F0BA
:101BE000CFF9E0B200F0CCF98CE04A48808845F2A9
:101BF0001051884220D14749488900F0C7F918128E
:101C000000F0BEF943494989491C88B200F0BEF989
:101C1000D8B200F0B5F93F49888900F0B7F9201231
:101C200000F0AEF93B498989491C88B200F0AEF951
:101C3000E0B200F0A5F965E03648808841F663110E
:101C4000884228D13348807920B932480088401E24
:101C5000C01A83B22F49488900F098F9181200F091
:101C60008FF9D8B200F08CF9181200F089F9D8B2C7
:101C700000F086F92749888900F088F9201200F0E1
:101C80007FF9E0B200F07CF9201200F079F9E0B2BF
:101C900000F076F936E01F48808846F60401884255
:101CA0001DD11C488079012804D11A480088401EA3
:101CB000C01A83B21749488900F068F9181200F079
:101CC0005FF9D8B200F05CF91249888900F05EF93A
:101CD000201200F055F9E0B200F052F912E00D4880
:101CE0008079012804D10B480088401EC01A83B2B5
:101CF00008494889194600F04FF906498889214664
:101D000000F04AF90348008903490880881C0580CF
:101D100030BD000084060020FE07006C10B50246AE
:101D2000012000E050430B00A1F10104E1B2F9D120
:101D300010BD00002DE9F84F80460E4617461C46A0
:101D4000B3462046E31704EB5373DB1021464FEAFA
:101D5000E47C04EB5C7C4FEAEC0CA4EBCC0CBCF117
:101D6000000F02D04FF0010C01E04FF0000C634473
:101D7000224604EBD27C4FEA6C0C03FB0CF3DBB283
:101D80000093A7F12000C7B2002556E00C2C07D124
:101D900007EB47002B4901EB800010F8059013E09A
:101DA000102C05D1284800EB071010F805900BE027
:101DB000182C07D107EBC700244901EB800010F86D
:101DC000059001E0BDE8F88F4FF0000A2FE009F020
:101DD000800030B11E48028831464046FFF7E0FEE1
:101DE00007E00A9828B91B48028831464046FFF7A9
:101DF000D7FE4FEA49604FEA1069701C86B2164858
:101E00004088B04200DCDDE7A6EB0B00A0420AD11F
:101E10005E4608F101001FFA80F80F48008840452F
:101E200000DCCFE706E00AF1010000F0FF0ABAF19A
:101E3000080FCCDB00BF681CC5B200988542A5DB4B
:101E400000BFBFE7324F0008A653000896590008AC
:101E5000F6000020F8000020840600202DE9F84755
:101E600004460D4690469946DDE9096704F0FF0AED
:101E700008EB04001FFA80F809EB05001FFA80F94F
:101E800016E0444502DB5446A81985B24D4500DBF7
:101E900014E0002000903A78334629462046FFF7A8
:101EA00049FF304606EBD07104EB61018CB27F1C18
:101EB00038787E2802DC38782028E2DA00BFBDE8D6
:101EC000F8872DE9FF4F82B0064692461F46DDE9AE
:101ED0000F480020019000254DE0781B401EC1B244
:101EE0000A20FFF71BFFBAFBF0F00A21B0FBF1F26A
:101EF00001FB1209019850BB781EA84227DDB9F1F9
:101F0000000F22D108F0800078B108F00100A3464C
:101F100004EBDB71491001FB0561009088B2234698
:101F200030220399FFF706FF0EE008F00100A346F8
:101F300004EBDB71491001FB0561009088B2234678
:101F400020220399FFF7F6FE13E00120019008F02C
:101F50000100A34604EBDB71491001FB0561009011
:101F600088B209F13001CAB223460399FFF7E2FEB5
:101F700000BF681CC5B2BD42AFDB06B0BDE8F08F44
:101F800001490880704700000008006C0149088082
:101F900070470000FE07006C024A1080921C1180FE
:101FA00070470000FE07006C10B50446412C24D198
:101FB00008210846FFF7AFFC3D21112001F0E8F8A9
:101FC0008621172001F0E4F87F21262001F0E0F8B7
:101FD0001E212D2001F0DCF800212C2001F0D8F882
:101FE0008D212A2001F0D4F83E212B2001F0D0F8D9
:101FF000022001F0FDF900F03DF810BD00BFFEE742
:102000007047000070B5002100230F22C47804B38C
:10201000154C246804F4E064C4F5E064210AC1F1BD
:102020000403CA40447804FA03F18478144021433D
:1020300009010E4C0678A155047804F01F0501240F
:10204000AC4005786D11AD0005F1E025C5F8004103
:1020500009E0047804F01F050124AC40044D067823
:10206000761145F8264070BD0CED00E000E400E07C
:1020700080E100E010B5142000F01CFC044604F0E0
:10208000030018B90321142000F0DDFC10BDF0B5E9
:1020900087B00546002708210846FFF73CFC0021D1
:1020A0000D2001F075F880210E20FFF734FC9320FD
:1020B0008DF8080020208DF8090001A802AB02224B
:1020C00002A900900C2000F051F8064686B90024C1
:1020D00007E002A8005D285502A8005D4740601C8B
:1020E000C4B2042CF5DB02A8005DB84200D0022681
:1020F00080210E2000F0A7FC304607B0F0BD2DE98E
:10210000F04387B006460F46904699468DF8086022
:102110008DF80970002406E018F8041002AAA01C2B
:102120001154601CC4B2062CF6DB002407E019F839
:10213000041002AA04F108001154601CC4B2062C59
:10214000F5DB01A802AB0C2202A900900E2000F0E2
:102150000DF805462DB9082000F0ACFB00F0080092
:1021600000B90225284607B0BDE8F0832DE9FE4FEF
:102170000646884691469A46DDF830B00220029025
:102180000020019000900C2E06D00E2E09D11220B6
:1021900001901020009005E0772001903020009001
:1021A00000E000BF00BF019840F08001022000F075
:1021B000EFFF80210420FFF7AEFB0021012000F09B
:1021C000E7FF80210A2000F03EFC002505E018F81A
:1021D0000510092000F0DCFF6D1C4D45F7D331469A
:1021E000012000F0D5FF0C2E03D180210D2000F03E
:1021F0002AFC4FF4487500BF042000F05BFB044646
:102200006D1E35B104F0010018B900982040002877
:10221000F2D080210D20FFF77EFB9DB3062000F059
:1022200049FB00F01B0070BB002002900198204089
:1022300000F0010008B1012002900C2E2AD10A20E2
:1022400000F038FB04460C2000F034FB00F00707D8
:102250002FB1601E07EBC000CBF8000002E0E000E9
:10226000CBF8000004B90124122C00DD1224002553
:1022700005E0092000F01EFB0AF805006D1CA542D0
:10228000F7D307E003E0FFE70220029002E007A097
:10229000FEF726F880210C2000F0D5FB002101205C
:1022A00000F076FF0298BDE8FE8F0000756C203DBF
:1022B00020300D0A00000000F0B587B005460E463C
:1022C00030208DF808008DF809500DF10A02022126
:1022D00002A8FFF7EAFA01A802AB042202A90090C3
:1022E0000C20FFF743FF074667B90198902809D1F2
:1022F000002404E002A8005D3055601CC4B2102C1C
:10230000F8DB00E00227384607B0F0BD70B588B0B2
:1023100005460C4608210846FFF7FDFA07210D2067
:1023200000F036FF0321142000F08DFB8DF80C50D7
:1023300002A803AB012203A900900C20FFF716FFAF
:1023400006464EB90298102806D19DF80C00207060
:102350009DF80D00607000E00226304608B070BDA8
:1023600010B501211D48FFF783FB012001F040F863
:1023700001211A48FFF77AFB012001F039F8012109
:102380001648FFF775FB012001F032F80F210120FC
:1023900000F0FEFE00BF012000F08CFA00F01000FB
:1023A0000028F8D1012001F023F83D21112000F090
:1023B000EFFE1E212D2000F0EBFE00212C2000F06E
:1023C000E7FE8D212A2000F0E3FE3E212B2000F0C5
:1023D000DFFE4021152000F0DBFE10BD000C0140A7
:1023E00070B588B0054693208DF80C0070208DF8EC
:1023F0000D0000208DF8120000240BE0295D03AAD7
:10240000A01C11549DF81200295D48408DF812005F
:10241000601CC4B2042CF1DB0DF11302072103A8E8
:10242000FFF743FA08210846FFF775FA02A803AB45
:10243000092203A900900C20FFF798FE064626B952
:102440000298182801D1002600E00226304608B084
:1024500070BD704710B575495220FFF757FF74499A
:1024600008700846007830B9022008707148FFF7FC
:102470000EFE6F4908706E48007800287ED1022059
:102480006B4908706B4800F05FFB6A4800786A4946
:10249000097888421AD16748407867494978884264
:1024A00014D1644880786449897888420ED16148A3
:1024B000C0786149C978884208D101205F49087015
:1024C0005FA0FDF70DFF64A001F0F2FD5948007810
:1024D0006549097888421AD1564840786249497856
:1024E000884214D1534880785F49897888420ED158
:1024F0005048C0785C49C978884208D101205B49BE
:1025000008705BA0FDF7ECFE5FA001F0D1FD49482B
:1025100000786149097888421AD1464840785E4976
:102520004978884214D1434880785B498978884249
:102530000ED14048C0785849C978884208D1012056
:102540005649087056A0FDF7CBFE5BA001F0B0FD28
:10255000384800785C49097888421CD13548407871
:1025600059494978884216D1324880785649897845
:10257000884210D12F48C078534900E031E0C97833
:10258000884208D101205149087051A0FDF7A8FEEA
:1025900055A001F08DFD27480078574909788842F9
:1025A0001AD12448407854494978884214D12148A6
:1025B00080785149897888420ED11E48C0784E49AA
:1025C000C978884208D101204C4908704CA0FDF719
:1025D00087FE51A001F06CFD1648FFF701FF14497A
:1025E00008701348007850B9022011490870114B47
:1025F0004D4A09216020FFF782FD0D4908700C4803
:10260000007848B902200A490870484948480078CB
:10261000FFF752FE064908700548007828B90220E5
:1026200003490870642000F0BDFE10BDB800002012
:10263000F4000020BA000020C4000020BE000020EA
:102640000D0A54686520557365722069733A636199
:1026500072645F300D0A0000557365723431363292
:102660003331373800000000C8000020BF000020D0
:102670000D0A54686520557365722069733A636169
:1026800072645F310D0A0000557365723431363261
:102690003330303000000000CC000020C0000020AB
:1026A0000D0A54686520557365722069733A636139
:1026B00072645F320D0A0000557365723431363230
:1026C0003339393900000000D0000020C10000205B
:1026D0000D0A54686520557365722069733A636109
:1026E00072645F330D0A00005573657234313632FF
:1026F0003331373200000000D4000020C200002037
:102700000D0A54686520557365722069733A6361D8
:1027100072645F340D0A00005573657234313632CD
:102720003331373300000000D80000207406002049
:10273000F500002010B500F0D7F801210648FFF79A
:1027400097F910210548FFF793F9FFF709FE41209B
:10275000FFF72AFC10BD0000000C014000080140FA
:1027600029B1064AD2690243044BDA6104E0034A04
:10277000D2698243014BDA617047000000100240C9
:1027800029B1064A12690243044B1A6104E0034A64
:1027900012698243014B1A61704700000010024029
:1027A00029B1064A92690243044B9A6104E0034A44
:1027B00092698243014B9A61704700000010024009
:1027C00029B1064AD2680243044BDA6004E0034AA6
:1027D000D2688243014BDA6070470000001002406B
:1027E00030B500210022002400232D4D6D6805F036
:1027F0000C0121B1042905D0082923D105E0294D78
:10280000056022E0274D05601FE0254D6D6805F449
:102810007012234D6D6805F48034022505EB924259
:102820001CB9214D554305600BE01D4D6D6805F445
:1028300000351DB11C4D5543056002E0194D55434F
:10284000056002E0174D056000BF00BF144D6D68C4
:1028500005F0F0010909154D6B5C0568DD40456028
:102860000F4D6D6805F4E061090A104D6B5C456819
:10287000DD4085600A4D6D6805F46051C90A0B4D55
:102880006B5C4568DD40C560054D6D6805F44041F1
:10289000890B074D6B5CC568B5FBF3F5056130BD71
:1028A0000010024000127A0000093D009400002050
:1028B000A400002070B504467E2000EA440040F0E9
:1028C000800510210748FFF7D1F8284600F090F85E
:1028D00000F068F8064610210248FFF7C9F83046B4
:1028E00070BD00000008014008B501214C20FFF731
:1028F00057FF1020ADF800008DF8030003208DF87D
:10290000020069462448FFF714F82020ADF80000C3
:1029100010208DF8030003208DF8020069461E4840
:10292000FFF707F84020ADF8000004208DF8030001
:1029300003208DF8020069461748FEF7FAFF802051
:10294000ADF8000010208DF8030003208DF8020080
:1029500069461148FEF7EDFF0120ADF80000102098
:102960008DF8030003208DF8020069460B48FEF73E
:10297000E0FF4020ADF8000010208DF80300032098
:102980008DF8020069460648FEF7D3FF402104484F
:10299000FFF76CF808BD000000080140000C014082
:1029A0000018014070B500251CE06006040E2021CF
:1029B0000E48FFF75BF8142000F01AFD40210B4889
:1029C000FFF742F8012801D144F00104142000F07F
:1029D0000FFD20210548FFF74BF8142000F008FDFB
:1029E000681CC5B2082DE0DB204670BD0008014020
:1029F00070B50446002520E004F0800020B180215D
:102A00000F48FFF735F803E080210D48FFF72EF857
:102A1000142000F0EDFC20210948FFF727F81420CE
:102A200000F0E6FC20210648FFF722F8142000F011
:102A3000DFFC6006040E681CC5B2082DDCDB70BD2F
:102A400000080140704770B505460C462846FFF760
:102A500031FF064646EA0401284600F099FB70BDA6
:102A600010B500F001F810BD0CB5002001900090E9
:102A70003348006840F480303149086000BF304876
:102A8000006800F4003000900198401C019000980C
:102A900018B90198B0F5A06FF1D12948006800F489
:102AA000003010B10120009001E00020009000985B
:102AB000012843D12348006840F0100021490860F4
:102AC0000846006820F0030008600846006840F0EF
:102AD000020008601A484068194948600846406882
:102AE00048600846406840F4806048600846406896
:102AF00020F47C1048600846406840F4E8104860C4
:102B00000846006840F08070086000BF0C4800680C
:102B100000F000700028F9D00948406820F0030058
:102B2000074948600846406840F00200486000BF1E
:102B30000348406800F00C000828F9D10CBD0000E3
:102B400000100240002002403EB50546002446E049
:102B5000285DC11700EB117109110DF814101DF853
:102B60001400092806DD1DF814003730C0B20DF836
:102B7000140005E01DF814003030C0B20DF8140048
:102B8000285DC11700EB11710911A0EB0111C9B249
:102B9000012202EB44020DF80210012000EB440078
:102BA0001DF8000009280CDD012000EB44001DF891
:102BB00000003730C0B2012101EB44010DF80100E3
:102BC0000BE0012000EB44001DF800003030C0B2E3
:102BD000012101EB44010DF80100601CC4B2042C7A
:102BE000B6DB00208DF80800694602A0FDF778FBEF
:102BF0003EBD000049443E3E3E25730D0A000000E4
:102C0000042808D14FF0E021096941F004014FF098
:102C1000E022116107E04FF0E021096921F0040191
:102C20004FF0E022116170477047000010B5134863
:102C3000006840F0010011490860084640681049EA
:102C400008400E494860084600680E4908400B4994
:102C500008600846006820F4802008600846406844
:102C600020F4FE0048604FF41F008860FFF7F8FE74
:102C70004FF000600449086010BD000000100240E1
:102C80000000FFF8FFFFF6FE08ED00E010B501219F
:102C90000B4800F075F888B120210A48FEF7DDFEE8
:102CA00020B920210748FEF7E3FE03E02021054874
:102CB000FEF7DCFE0121024800F050F810BD0000D4
:102CC00000040040000C014010B50121094800F04B
:102CD00060F868B10848008840F400400649088060
:102CE0000121044800F03DF80021024800F03CF8C2
:102CF00010BD000000140040B60000207FB505465E
:102D00000C4601212020FFF72BFDADF80450ADF853
:102D100000400020ADF80600ADF8020069460E48FC
:102D200000F054F8012211460B4800F043F801214D
:102D3000094800F019F837208DF80C0000208DF8B4
:102D40000D0002208DF80E0001208DF80F0003A861
:102D5000FFF758F97FBD000000140040CA4302820B
:102D60007047CA430282704721B1028842F00102D3
:102D7000028004E002884FF6FE731A40028070471A
:102D800002460020138A0B400BB1012000E0002016
:102D9000704730B50246002000230024158A05EA5A
:102DA0000103958905EA010413B10CB1012000E08B
:102DB000002030BD1AB183890B43838102E08389EF
:102DC0008B43838170478184704700000022028812
:102DD0001D4B98420ED01D4B98420BD0B0F1804F46
:102DE00008D01B4B984205D01A4B984202D01A4B80
:102DF000984204D14FF68F731A404B881A43174BF1
:102E0000984207D0164B984204D04FF6FF431A4021
:102E1000CB881A4302808B8883850B8803850A4BF5
:102E200098420BD0094B984208D00E4B984205D0DF
:102E30000D4B984202D00D4B984201D10B7A03867C
:102E40000123838270470000002C014000340140C0
:102E50000004004000080040000C0040001000404A
:102E6000001400400040014000440140004801407F
:102E700010B540F225510F4800F0C3F8C8B1202129
:102E80000D48FEF7EAFD20B920210B48FEF7F0FDC2
:102E900003E020210848FEF7E9FD064800F06CF940
:102EA000C4B2064801880088401C044A10800448C7
:102EB000445410BD00380140000C0140B000002017
:102EC000FC00002010B540F22551164800F099F89A
:102ED000F8B1144800F050F9C4B21348008800F467
:102EE0000040B0B910480088B0F5167F12DA002112
:102EF0000E48FFF768FF0C48008818B901210B48FD
:102F0000FFF732FF08490888411C074A1180084929
:102F10000C5405E00448008840F400400249088051
:102F200010BD000000480040B60000200014004022
:102F3000C401002021B1828942F40052828104E060
:102F400082894DF6FF731A408281704710B504469E
:102F50002048844209D101218803FFF731FC002178
:102F60004FF48040FFF72CFC32E01B48844209D12B
:102F700001214804FFF704FC00214FF40030FFF763
:102F8000FFFB25E01548844209D101218804FFF7A1
:102F9000F7FB00214FF48020FFF7F2FB18E0104808
:102FA000844209D10121C804FFF7EAFB00214FF454
:102FB0000020FFF7E5FB0BE00A48844208D101211D
:102FC0000805FFF7DDFB00214FF48010FFF7D8FB69
:102FD00010BD00000038014000440040004800409F
:102FE000004C00400050004002460020B1F5007F38
:102FF00000D100BF13880B400BB1012000E000207E
:10300000704770B50246002400230025002040F6DA
:103010006A16B14200D100BFC1F3421501F01F038F
:10302000012606FA03F3012D02D19689334006E00A
:10303000022D02D1168A334001E0968A33400C12E9
:10304000012606FA04F41688344013B10CB10120AD
:1030500000E0002070BDF0B50346002400260025E6
:10306000002040F66A17B94200D100BF1846C1F3EC
:10307000421401F01F06012707FA06F5012C01D1C1
:103080000C3004E0022C01D1103000E014301AB1F1
:1030900007682F43076002E00768AF430760F0BD91
:1030A0002DE9F04786B005460E460024A24600BF33
:1030B000A1460027B08900B100BF2F462C8A4CF6EC
:1030C000FF700440F08804432C82AC894EF6F31064
:1030D0000440B08831890843718908430443AC81B6
:1030E000AC8A4FF6FF400440B0890443AC8201A88B
:1030F000FFF776FB1F48874202D1DDF810A001E000
:10310000DDF80CA0A88900F4004040B10AEBCA0029
:1031100000EB0A1031684900B0FBF1F807E00AEB58
:10312000CA0000EB0A1031688900B0FBF1F8642096
:10313000B8FBF0F004012009642101FB1089A88983
:1031400000F4004040B1322000EBC900B0FBF1F0C8
:1031500000F00700044308E0322000EB091064216E
:10316000B0FBF1F000F00F0004432C8106B0BDE885
:10317000F08700000038014001468888C0F308004D
:103180007047C1F308028280704700BFFEE700006D
:1031900070B504460D467E2000EA4406102107481B
:1031A000FEF764FC3046FFF723FC2846FFF720FCBF
:1031B00010210248FEF75CFC70BD000000080140D1
:1031C00038B501210420FFF7EBFA01210820FFF7B1
:1031D000E7FA01211020FFF7E3FA01210802FFF7C7
:1031E000DFFA01214020FFF7DBFA03208DF802000F
:1031F00010208DF80300012417E00D4830F814006A
:10320000ADF800000B4951F824006946FEF791FB28
:10321000074A32F81410074A52F82400FEF726FC39
:103220000A2000F0BFF8601CC4B2142CE5DD38BDE4
:103230005400002000000020490050EAC12018BFBF
:1032400004204A0D18BF40F0010040F2FF72B2EBBB
:10325000515F08BF40F00200012808BF05207047F9
:103260002DE9F0414F1E00EBC7010446D1E90001F2
:1032700015461E4637F006020DD02A46334601F0A9
:10328000CBFA7F1E04EBC703D3E9002301F01CF83F
:1032900037F00602F1D1022F25D0042F13D0062FCC
:1032A00018BFBDE8F0812A46334601F0B5FAD4E9EB
:1032B0000A2301F009F82A46334601F0ADFAD4E9B1
:1032C000082301F001F82A46334601F0A5FAD4E9B3
:1032D000062300F0F9FF2A46334601F09DFAD4E9AF
:1032E000042300F0F1FF2A46334601F095FAD4E9B1
:1032F000022300F0E9FF2A46334601F08DFAD4E9B3
:103300000023BDE8F04100F0DFBF000000221346BB
:103310001046014901F094B80000F03F00F0D4BF1E
:10332000002213461046114601F08AB840F20132DD
:1033300000204FF0E04101F0B3BD0000024A002040
:10334000110701F0ADBD000001FDFFFF30380A2874
:1033500001D20120704700207047014600BF70472E
:1033600010B56FF00400FFF74BFC0A4800680A49EB
:10337000B0FBF1F0094908700846007800EB400105
:10338000C1EBC0104FF6FF7101EAC000044908808C
:1033900010BD00008000002000127A00B200002062
:1033A000B40000200146114A12884A434FF0E0233E
:1033B0005A6100229A611A46126942F001021A61AA
:1033C00000BF4FF0E022106900F001021AB100F4D2
:1033D0008032002AF5D04FF0E022126922F001027B
:1033E0004FF0E0231A6100229A617047B400002078
:1033F0000146114A12784A434FF0E0235A610022F5
:103400009A611A46126942F001021A6100BF4FF038
:10341000E022106900F001021AB100F48032002AA3
:10342000F5D04FF0E022126922F001024FF0E023C4
:103430001A6100229A617047B200002000BF054A5D
:10344000128802F04002002AF9D0C2B2014B1B1DC3
:103450001A807047003801408CB04FF0000900BF5F
:103460000025AA4601244FF0000B764903C9CDE997
:103470000A014FF4165000F043FE4FF4E13000F023
:103480008FFEFFF76DFFFEF75BFBFFF799FEFFF77F
:1034900051F94FF478406C4908806CA010210B461C
:1034A000C822CDE9001032211E20FEF7D7FC6BA008
:1034B00010210B46C822CDE9001046211E20FEF740
:1034C000CDFC69A010210B46C822CDE900105A217D
:1034D0001E20FEF7C3FC68A010210B46C822CDE9D0
:1034E00000106E211E20FEF7B9FCAAE0FEF7B2FF25
:1034F0004FF49670FFF756FF62A000F0D9FD4FF42D
:103500009670FFF74FFF6148008800F400400028E4
:1035100057D00024A34600E0641C5D48005D0028ED
:10352000FAD100253DE05A4800784F2808D1554689
:10353000002057490871C87088704870087032E0E0
:10354000641E204601F001F902460B46CDE9000158
:103550000020504900F0AAF8074688464C4911F867
:103560000B10A1F1300001F0F0F83A464346CDE9E6
:10357000020101F051F9CDE90601284601F0FCF8FD
:10358000CDE90401DDE9062300F09EFECDE9080146
:1035900001F0AEF80546002258460BF1010B3C49FC
:1035A0000A54002CBFDC00BF00203849088080206E
:1035B000102108232A46CDE9001001210846FEF714
:1035C00080FC554522D001241DE00120A040284068
:1035D00060B120213048FEF749FA304A32F8141021
:1035E0002F4A52F82400FEF743FA0BE020212D4821
:1035F000FEF73CFA294A32F81410294A52F82400FE
:10360000FEF734FA641C142CDFDDAA460020FEF716
:1036100033FA0646AEB1012E06D0022E0AD0032E92
:103620000BD0042E0CD10BE04FF480511E48FEF756
:103630001FFA05E009F1010902E009F1020900BFE2
:1036400000BF53E72C4F0008F6000020576172536B
:103650006869702053544D3332000000544F554375
:10366000482054455354000041544F4D40414C496B
:10367000454E54454B000000323031352F312F314B
:1036800035000000526561640D0A0000B60000209C
:10369000C401002000002440000C01405400002020
:1036A0000000002000180140001001402DE9F04DFD
:1036B00016460F4694B01C4621F0004123F000420C
:1036C000002814BF4FF0010C4FF0000C0CEB470C1E
:1036D000FE4B0CEB03054FEA630C65452BD335001D
:1036E00018BF012505EB44051D44F94B9D4222D32B
:1036F000F84B52EA060C02D09F4205D148B914B0EB
:1037000000201946BDE8F08D002808BF4FF0000CDE
:1037100001D04FF0010C0CEB470313F5001F0AD842
:10372000002E14BF4FF0010C4FF0000C0CEB4403C3
:1037300013F5001F07D914B0324623463946BDE8B9
:10374000F04DFFF7EBBDDFF890834FF0000A002F3C
:10375000B8BF424523DAE14B9A42A8BF4FF0020AB4
:103760001DDADC4B93421ADCDD4B03EB2253142BA6
:1037700008DDC3F1340C26FA0CF303FA0CFCB44553
:103780000DD108E05EB9C3F1140C22FA0CF303FA70
:103790000CFC944503D103F00103C3F1020A51EA82
:1037A00000031BD1002C19DA002F18BFBAF1020F49
:1037B00002D0BAF1010F07D00220FCF7FDFE14B0D1
:1037C000BDE8F04DFFF7A2BD0220FCF7F5FEFFF7C4
:1037D0009DFD14B081F00041BDE8F08D330070D143
:1037E000424525D107F1804212F5801201BF002821
:1037F0000020B84914B008BFBDE8F08DB548884234
:1038000007DC002CA1BF1846214614B0BDE8F08D9E
:1038100007E0002CBFBF184684F0004114B0BDE89B
:10382000F08DB0497944D1E9000114B0BDE8F08DC4
:10383000DFF8A0C262452AD1002C24DA39B1414513
:1038400017D1002804BF002002461CD106E040B179
:103850000220FCF7B1FEFFF769FD0A46394600F089
:10386000D7BA9D4A394614B0002062F31E01BDE864
:10387000F08D08DA14B03B46BDE8F04D024600205A
:10388000614600F0DDBD14B03946BDE8F08D41451C
:1038900017DAB4F1804F0CD0A4F10053B3F1FF5309
:1038A0000FD13B1E0DDB14B01946BDE8F04D00F002
:1038B000D9BB3B4614B00246BDE8F04D194600F0B6
:1038C000ABBF050027F000433AD1E1B1414537D104
:1038D000002F06DD002CA1BF0020414614B0BDE83A
:1038E000F08D002F01DD002C1FDB002F16DA002CDD
:1038F00014DBBAF1010F4FF0000014BF76497A498A
:1039000014B0BDE8F08DBAF1020F18BF002F0CD033
:10391000BAF1010F09D1002F07DA0BE0002FB8BF71
:10392000002C0DDABAF1010F04D0002014B00146CA
:10393000BDE8F08D14B000204FF00041BDE8F08DDF
:103940004FF0010808EBE77CCDF814C05CEA0A0CE4
:103950000DD0DFF898C162457EDDDFF894C1654B7C
:10396000624512DD8B420ADB002C18DB23E00120CC
:10397000FCF722FE14B0BDE8F04DFFF7D1BC554A6C
:103980008A4202DC002C0ADC15E0994202DA002CA3
:1039900011DA04E04F4B994219DD002C0BDD0220B7
:1039A000FCF70AFEFFF7C2FC4B4A14B061F31E029B
:1039B0001146BDE8F08D0220FCF7FEFDFFF7BEFCCE
:1039C000444A14B061F31E021146BDE8F08D002296
:1039D000394601F047F907460D466FF0010201F044
:1039E0005FFA4FF05532444B01F04AF83A462B4605
:1039F00000F012FF0022414B01F042F880468B4656
:103A00003A462B461046194600F006FF42465B46F2
:103A100000F002FF88460E904FF0C042384B384607
:103A2000294600F0F9FE83460091364A344B414660
:103A30000E9800F0F1FE80460191334A334B384630
:103A4000294600F0E9FE4246019B01F00BF90D46C4
:103A500002460B460C9000E011E05846009900F039
:103A600033FC002788465A463846009B01F0FAF896
:103A70002B460C9A01F004F8024600F079B90020B8
:103A8000B1F5801F07DA35222846194601F008FAF9
:103A900005466FF0340000EB2150A0F2FF3001909A
:103AA000C1F3130040F07F6141F040510291184989
:103AB0008842D8BF4FF0000B35DD16498142C8BFA0
:103AC0004FF0010B2FDC4FF0000B25E0FFFF1F0034
:103AD000FFFF0F000000F03F0000F07F00004043B8
:103AE00001FCFFFF982F00000000F0FF0000E04104
:103AF0000000F043FFFFEF3F5555D53F0000E03F8A
:103B00004715F73FFE822B6544DF5DF80BAE543E50
:103B10008E9803007AB60B000198401C0190029821
:103B2000A0F580100290FF480299784400EBCB008A
:103B30000991D0E9002328460B93129201F092F8E4
:103B400000910A9028460B9B129A099900F0BCFB41
:103B500002460B460020F44900F072FCCDE90C014E
:103B60000B46024600990A9800F056FE0690EF4870
:103B70008846002778440299006810904FF0005062
:103B800040EA610000EB8B4000F5002102910B9BA5
:103B9000129A109801F066F82A46099B00F070FF0F
:103BA0003A46434600F038FE0891129038464146A6
:103BB000029B109A00F030FE009B0A9A00F060FF12
:103BC000089B129A01F04EF8DDE90C2300F024FE68
:103BD0000B91069A129043461046194600F01CFEBF
:103BE00005460246D2480B460A9106217844FFF763
:103BF00037FB0A9B2A46089102901046194600F0AE
:103C00000BFE089B029A00F007FE05460991434609
:103C100038461946069A00F057FB0B9B129A00F0A3
:103C2000FBFD2A46099B00F04FFBCDE908013A460F
:103C300043461046194600F0EFFD0A910022BD4BA5
:103C4000009000F041FBDDE9082300F03DFB0D464C
:103C50003A46B84B384601F005F80A9B009A01F045
:103C600001F8DDE9082300F00BFFCDE908013A4631
:103C70002B461046414600F0CFFD00910A90DDE949
:103C800008014346069A00F0C7FD069088462B4679
:103C90003A460B99129800F0BFFD4346069A00F091
:103CA00013FB80460B4602460D9100990A9800F0DE
:103CB0000BFB00200F460546009B0A9A00F0D2FF3E
:103CC00042460D9B00F0DCFE88460E904FF06042AD
:103CD000994B2846394600F09FFD02910090974A83
:103CE000954B41460E9800F097FD80460391944A0B
:103CF000944B2846394600F08FFD4246039B00F066
:103D0000E3FA914A7A4402EBCB03D3E9002300F0B3
:103D1000DBFA05460791019800F017FD0C9003911E
:103D20002A46079B0299009800F0CEFA874A7A4407
:103D300002EBCB03D3E900239346019300F0C4FACE
:103D4000039B0C9A00F0C0FA002788463846039B74
:103D50000C9A00F087FF5A46019B00F083FF029BFC
:103D6000009A00F07FFF2A46079B00F089FE02467A
:103D70000020069005986C4DAAF10103184301D16B
:103D8000734D069000200B4604903046214600F00B
:103D900043FD82468B46234630461946049A00F07E
:103DA00061FF3A46434600F037FD52465B4600F05D
:103DB0008BFA06468A463A4643462146049800F066
:103DC0002BFD04460F463246534600F07DFA614A09
:103DD0008B46914221DBABEB020353EA000210D188
:103DE00022463B4600F03EFF804603915A4A5B4B19
:103DF0003046514600F068FA4246039B00F00AFE46
:103E000027D20220FCF7D8FBFFF790FA0A46294692
:103E100014B062F31E01BDE8F08D514B2BF000424F
:103E20009A4216D34F4A0BEB020353EA000208D121
:103E300022463B4600F016FF3246534600F0EAFDAC
:103E400007D80220FCF7B8FBFFF778FA0A462946A4
:103E5000DEE72BF000404449444A01EB20514FF08B
:103E60000008824223DA481C4FF4801121FA00F046
:103E700058443F4AC0F30A517A443E4BA1F2FF3105
:103E8000CB4020EA0303C0F3130040F4801CC1F1CF
:103E9000140012682CFA00F8BBF1000FB8BFC8F18B
:103EA00000082046394600F0DDFE04460F46224653
:103EB0003B463046514600F007FA4FF0000B5A4699
:103EC0002D4B5846039100F0A7FC00910A902B4A15
:103ED0002B4B5846039900F09FFC04910290224618
:103EE0003B465846039900F0BDFE3246534600F06B
:103EF000C7FD244A244B00F08FFC049B029A00F07B
:103F0000E3F907468A46009B0A9A00F0DDF9044669
:103F10000E46009B0A9A00F0A5FE3A46534600F072
:103F2000AFFD33E0022C00000000F03F482C000001
:103F3000702B00000000084009C7EE3FFD033ADC8B
:103F4000F5015B14E02F3EBE482A00000E2A000057
:103F50000000F0BF00009040FE822B654715973CA3
:103F600000CC904000346F3F01FCFFFF0000E03FB9
:103F700044290000FFFF0F00432EE63F396CA80CD8
:103F8000615C20BEEF39FAFE422EE63F074622462C
:103F900033460F911046194600F03EFC8346024618
:103FA0002E488A460B4605217844FFF759F95A46B0
:103FB000534600F031FC2246334600F061FD824654
:103FC0008B463A46204631460F9B00F025FC3A4688
:103FD0000F9B00F079F90F460A9000224FF08043C2
:103FE0005046594600F03EFE0391009052465B4613
:103FF0002046314600F010FC039B009A00F020FAA6
:104000003B460A9A00F02EFE2246334600F02AFE76
:104010000022134B00F034FD0E46044601EB08511C
:104020000815002810DC42462046314600F038FFD3
:10403000FFF702F9042808BFFFF780F9424620463F
:10404000314600F02DFF044606980B4614B0224678
:104050002946BDE8F04D00F0DFBB0000E42700007A
:104060000000F03F2DE9F04106460F4600F014FD38
:1040700004000D4618BF0120284320F00040C0F185
:104080007F6000F1E040C00F0ED0301C18BF01204F
:10409000384320F00040C0F17F6000F1E040C00FE5
:1040A00004BF0120FCF788FA20462946BDE8F081CC
:1040B0000FB438B505A800900F48009A0499FCF792
:1040C000FDF8002000900C48FCF74EFA85B2002461
:1040D0000DE000BF40210948FEF786FF0028F9D017
:1040E0000548015D0548FFF74CF8601C84B2AC42FE
:1040F000EFDB38BC5DF814FB1C04002000480040D6
:1041000010B586B00446012144F20400FEF748FBD6
:104110004FF40070ADF8140003208DF8160018203D
:104120008DF8170005A91C48FDF703FC4FF48060CB
:10413000ADF8140004208DF8170005A91648FDF706
:10414000F8FB25208DF8000003208DF801008DF884
:10415000020001208DF803006846FDF753FF01942B
:104160000020ADF80800ADF80A00ADF80C00ADF87D
:1041700010000C20ADF80E0001A90848FEF790FFD2
:10418000012240F225510548FEF765FF0121034851
:10419000FEF7D0FE06B010BD000801400038014017
:1041A00010B586B0044601210820FEF7F9FA012176
:1041B0008804FEF7D5FA2A48FEF7C8FE4FF480605F
:1041C000ADF8100003208DF8120018208DF81300B0
:1041D00004A92448FDF7ADFB4FF40060ADF81000D2
:1041E00004208DF8130004A91E48FDF7A2FB0094DB
:1041F0000020ADF80400ADF80600ADF80800ADF8F9
:104200000C000C20ADF80A0069461548FEF748FF7F
:1042100001211348FEF78EFE012240F2255110487D
:10422000FEF719FF27208DF8140002208DF81500E5
:1042300003208DF8160001208DF8170005A8FDF762
:10424000E1FE41F61F4140F2E730FEF757FD002046
:104250000549088000210548FEF786FD06B010BD1F
:1042600000480040000C0140B6000020001400404F
:1042700010B500290AD00878002807D005487844EE
:10428000FCF716FF002801D0002010BD024878443A
:1042900010BD0000FE250000F625000010B5002925
:1042A0000AD00878002807D005487844FCF700FFBA
:1042B000002801D0002010BD0248784410BD000045
:1042C000EE250000E625000010B591EA030F48BF77
:1042D00083F0004300F1CE84841A71EB030C05D205
:1042E000121943EB0C03001B61EB0C01DFF824E116
:1042F0004FEA1154A4EB135C1EEA430F18BF9EEA69
:10430000445F73D023EA0E03DCF1200E21EA04514E
:1043100043F4801332D322FA0CFE10EB0E0023FA82
:104320000CFE41EB0E01CCF1200E03FA0EFE10EB59
:104330000E0051F10001B1F5801FCCF1200E32D2F8
:1043400001EB045112FA0EF2BDE8104058BF70475D
:10435000401C38BF5FEA420218BF7047002814BFF4
:1043600020F0010041F100014FEA410313F5001F65
:1043700038BF7047A1F1C04100F046BB012A43EBB2
:104380000302ACF1200CDCF11F0E32BF4FF0000E27
:1043900023FA0CF310EB030041EB0451B4EB115F73
:1043A000D0D0A1EB045101F5801149085FEA30003B
:1043B00001EB04510ED350F1000038BF12FA0EFE8B
:1043C00008D1BDE81040C9E7401C38BF5FEA42028F
:1043D000CAD1C3E7BDE810404FEA410313F5001FFF
:1043E00038BF7047A1F1C04100F00EBB9EEA445FA8
:1043F00008D011EA5E0FBDE8104004BF01F0004193
:1044000000207047BDE8104070B500F0AFFA00BF63
:1044100064FBBE3E0000E0FF02494FF0000000F0E8
:104420000DBD00BF0000F87F491058BFC1F14041E9
:104430005B1058BFC3F140438B42EFF300807047DD
:104440002DE9C04130B4DFF8A0C23CEA111418BF16
:104450003CEA131400F0EC8081EA03051CEA111415
:1044600044EAD57418BF1CEA131500F0C780A4EB0A
:1044700005044FF0004545EAC12145EAC32341EA5E
:10448000505143EA525304F17F74994204F50034C9
:104490004FEAC0204FEAC22208BF904200F09C8041
:1044A0004FEA13650FF24016765D4FEA134506FB9F
:1044B00005F7C7F1807706FB07F74FEAD737A7FB69
:1044C00003687642C8F58038A7FB06CE38BFA8F14E
:1044D000010807FB08E64FF0000EA6FB028CE6FB86
:1044E00003CEDCF1000CCEF1004E38BFAEF1010E70
:1044F000A6FB0C584FF000074FF00005E6FB0E87B7
:10450000A1FB08C6A0FB07CE16EB0E0645F1000581
:10451000E1FB076515F1E04E7EBFA4F580345FEA4C
:1045200046066D4116F1800745F100054FEA172751
:104530004FEA066647EA0567A6F1DE46B6F1805FF8
:104540004FEA15251FD9384624F0010C05EBC4713C
:10455000BCF1FE6F01EB0C1102D8F0BCBDE800818C
:1045600024425CBF01F5801E9EEAC47F02D4F0BCE9
:10457000BDE80081244238D4F0BCA1F1C041BDE8BF
:10458000004100F041BA4FEAD22242EA43524FEAD8
:10459000D323A7FB02864FEAD02040EA415007FB15
:1045A00003661EEA0E0F4FEAD12105FB026658BFD3
:1045B000A6EB0056B6EB00564FEA520E4EEAC37E0B
:1045C00018EB0E0E56EB530EBDD518EB02085E41EC
:1045D0007F1C55F10005B6E74FF480154FF000073A
:1045E0004FF000064FF00008ADE7F0BC4FF00000C0
:1045F00001F1C04101F00041BDE8008111EA0C1F4A
:104600000CEA131500D00CE013EA0C1F00F0258013
:104610004FF00000F0BC81EA030101F00041BDE869
:104620000081F0BCBDE8004181EA030100F0ECB973
:10463000F0BCBDE8004170B500F098F9097EFC3E81
:1046400000F007B881EA03014FF0000001F00041DB
:10465000704781EA030100F0D7B9F0BCBDE8004122
:104660004FF0000021497047FFFDFBF9F7F5F4F228
:10467000F0EEEDEBE9E8E6E4E3E1E0DEDDDBDAD8FD
:10468000D7D5D4D3D1D0CFCDCCCBCAC8C7C6C5C45B
:10469000C2C1C0BFBEBDBCBBBAB9B8B7B6B5B4B372
:1046A000B2B1B0AFAEADACABAAA9A8A8A7A6A5A45D
:1046B000A3A3A2A1A09F9F9E9D9C9C9B9A99999821
:1046C0009797969595949393929191908F8F8E8EC4
:1046D0008D8C8C8B8B8A8989888887878685858451
:1046E00084838382828181800000FF070000F87F3D
:1046F0004FEA1153A3F58063D3F11E03A8BFD3F192
:10470000200C08DB4FF0004242EAC12252EA50522C
:1047100032FA03F0704709420BD4102BC4BF0020BB
:10472000704703F5787CBCF1FF3F05D04FF0FF30B8
:1047300070474FF00000704770B500F017F900BFE8
:104740004992248000207047F0E710F0004248BFF3
:104750004042B0FA80F310FA03F10AD0C3F11D030E
:1047600003F580634FEA415002EB035202EBD12183
:1047700070474FF000007047B0FA80F310FA03F171
:104780000AD0C3F11D0303F580634FEA41504FEA9D
:10479000035202EBD12170474FF000007047000038
:1047A00051EA030C17D41CF5801F58BFBCF5801FBD
:1047B00000F10680994218BF704708BF90427047C9
:1047C00007D711F5801F58BF13F5801F19D49942E0
:1047D0007047894270471CF5801F08D5BCF5801FC3
:1047E000F7D58B4218BF704708BF824270474FF41D
:1047F000001C1CEB410F38BF1CEB430F01D28B4256
:10480000704770B500F0B2F8922449004FF00051A3
:104810004FF08053FFF708BEDFF848C170B51CEABF
:10482000111E1EBF1CEA13159EEA0C0F95EA0C0F11
:1048300000F06F8081EA030423EA4C134EEAD47E31
:1048400021EA4C1141F4801143F48013AE44A1FBE2
:10485000024CA0FB0365AEF17F7E361955EB0C05CB
:10486000A1FB034C4CF10003A0FB021C16EB0C0651
:10487000654153F10003094218BF46F0010613F4E5
:10488000007F0BD14FEA03314FEA0530340341EA90
:10489000155140EA16506FF003020AE04FEAC321B7
:1048A0004FEAC520F40241EA555140EA56506FF0F4
:1048B000020202EB2E4201EB025585EACE710AD0CC
:1048C0005FEA440C18BF24F0004450F1000041F1AD
:1048D000000120EAD47040F2FE7C624500D270BD37
:1048E000A84214BF4FF080444FF04044002E08BF50
:1048F0000024BEF1806FA8BFA1F1C041BDE87040A7
:1049000080F282804FF0000001F1C04101F00041CF
:1049100070479EEA0C0F0CEA131518BF95EA0C0FAE
:1049200006D04FF0000081EA030E0EF0004170BD8A
:1049300000F01CF88900013E00F007B800F009B84B
:104940004FEA430C5FEA5C5C08D081EA030100F0A7
:104950005BB84FEA410C5FEA5C5CF6D14FF00000B7
:10496000014970470000FF070000F87F0EF1020EBA
:104970002EF0030E5EF8046B364205D4012A43EB99
:10498000030515F5001F12D8012841EB010C1CF599
:10499000001F0CD80ED14FEAD17C15F5001F0CEB8F
:1049A0004C0C0CF1020C08BF4CEBD37C04E04FF034
:1049B000080C01E04FEAD37C0CEB4C0526FA05F617
:1049C00006F00706B6F1040C06D20EEB860CBDE825
:1049D00070404CF0010C6047DFE80CF0090B02025C
:1049E0004FF000414FF00000A1F5002170BD1946C5
:1049F0001046012851EB010418BFD4F5001484BF00
:104A0000002001F0004170BD0808A0F500114FEA38
:104A10003101704753EA010C17D41CF5801F58BFB1
:104A2000BCF5801F00F106808B4218BF704708BF9D
:104A30008242704707D713F5801F58BF11F5801FBA
:104A400019D48B4270479B4270471CF5801F08D5D4
:104A5000BCF5801FF7D5994218BF704708BF904238
:104A600070474FF4001C1CEB430F38BF1CEB410F89
:104A700001D2994270470FB40CBC03BCFFF7C1BE12
:104A800091EA030F10B581F000413FF525AC83F0AA
:104A9000004300F0EFB800002DE9F04101F5801C63
:104AA000BCF5001FC0F2C3804FEA115C21EA0C5133
:104AB0000CF1FD0C41F480115FEA5C0C0CF5C07C3C
:104AC00001D3400049413DA4890241EA9051870247
:104AD0008E0E0A0CA45D04FB04F602FB06F6C6F17A
:104AE0004046A4FB0662F60D46EA422606FB06F4A3
:104AF000A4FB01235242C3F1404338BF5B1EA6FB17
:104B000002420024E6FB0324D20B42EA4446A6FB01
:104B10000623A1FB02E2A3FB07E4A4184FF0000266
:104B200052F10002E3FB01426442C2F1404E38BF41
:104B3000AEF1010EA6FB04234FF00002E6FB0E329D
:104B4000A2FB03464FF00004B61954F10004E2FB47
:104B50000264A1FB06E6A4FB07E816EB08064FF08B
:104B6000000858F10008E4FB01687642C8F140589B
:104B700038BFA8F10108A2FB06E4A3FB08E52D1944
:104B80004FF0000454F10004E2FB0854A1FB05E6D9
:104B9000A7FB04E818EB06084FF0000656F10006E4
:104BA000E1FB048618F1200556F10006A809A8F1DA
:104BB0001B08B10908F03F08B8F10A0F40EA866007
:104BC0001CD901EB0C51BDE8F08100BFFCF5EEE80B
:104BD000E2DDD8D3CFCBC7C3C0BDB9B6B4B1AEAC9C
:104BE000A9A7A5A3A19F9D9B9A9896959392908F14
:104BF0008D8C8B898887868584838281A0FB006861
:104C000000FB01F208EB4208B8EB872807D53418FF
:104C100058EB0104D5D5401C51F10001D1E7341AFD
:104C200078EB0104CDD4401E71F10001C9E75FEAC1
:104C30004C0C5FEA9C5C0DD105D34FF0000001F0F5
:104C40000041BDE8F081BDE8F04170B5FFF78EFE90
:104C50006DDBFFBEBDE8F0414FF00000004970473A
:104C60000000F87F10B591EA030F48BF83F00043BE
:104C70003FF532AB841A71EB030C07D212198CF09A
:104C8000004C43EB0C03001B61EB0C01DFF8A4E1CB
:104C90004FEA1154A4EB135C1EEA430F18BF9EEABF
:104CA000445F00F0B08023EA6E03524221EA0451CF
:104CB000C3EB6E0338BF5B1EDCF1200E25D322FA56
:104CC0000CFE10EB0E0043FA0CFE41EB0E01CCF192
:104CD000200E03FA0EFE10EB0E0051F10001CCF194
:104CE000200E29D412FA0EF201EB0451BDE8104057
:104CF00058BF7047401C1CBFB2F1004F70470028DE
:104D00000CBF491C20F00100704712EB020E43EB70
:104D1000030218BF4FF0010E4EEA4202ACF1200C24
:104D2000DCF11E0E54D943FA0CFE10EB0E0051F1CB
:104D3000FF31CCF11E0ED5D50EF1010E12FA0EFE8A
:104D4000404141EB010101EB445C5FEA5C5C10D93E
:104D500010EBDE7001EB045138BFBEF1004FBDE82F
:104D6000104018BF704700280CBF491C20F00100FC
:104D7000704730D24FEAD42C11F5001124F40064AE
:104D80001BD0B1FA81F20B3AA41AA41ED2F120036F
:104D9000914030FA03F31943904001EBCC71002CA1
:104DA00001EB0451BDE81040A8BF704701F1C041BC
:104DB0004FF0000001F000417047B0FA80F310FAA4
:104DC00003F100D110BDE41A173C4805C90AE4E715
:104DD00001EB045110BD491001EB0451BDE8104036
:104DE0004FEA300002E04FF0000170474A0008BF70
:104DF0000042F8D0B2F5001F28BF704701F0004113
:104E00004FF0000070479EEA445F07D011EA5E0F42
:104E1000BDE8104004BF002100207047BDE81040ED
:104E200070B5FFF7A3FD00BF40DFF63E83F0004101
:104E3000104670470000E0FFFBF7E0BE0CF00F03E8
:104E4000092B08BF082000F059800A2B0BD0082B33
:104E500018BF704708BF1CF0400F0AD04FF0000089
:104E60004FF0000170471CF0400F18BF4FF000409A
:104E700070471CF0100F08D020F0704300F07F4204
:104E800042EAD3014FEA4370704700F0604021F0DE
:104E90007F4242EA000201F07F4040EA72707047B0
:104EA0004FF0FF0C4CF4E06C1CEA11531CBF9CEA61
:104EB000030C9445C2BFDA4201EB02517047002B4C
:104EC0000DD0BCF1000F0FD0002A01F00041A4BFAB
:104ED00041F0E04141F07F614FF00000704701F088
:104EE00000414FF00000704750EA01334FF09B0C37
:104EF00018BF4CF0806C7FF48FAA70471CF4801FA1
:104F000011D01CF4E02F03D06FEACC314900704778
:104F10004FF04050EFF3008222F0704242EA00026C
:104F200082F3008870474FF00000704731000000A6
:104F30000000000000000000000000000000000071
:104F400000003F4000000000000000003000400072
:104F500030004000000009000BC03D000BC03D00C8
:104F6000090018C024407FE0224031800000180072
:104F700024C01B000D803240018003801C4027406C
:104F80001C8007400040100060000000000000008E
:104F900000000000000000001F80204040200000B2
:104FA000402020401F8000000000090006001F80F4
:104FB000060009000000040004003F800400040013
:104FC000000000100060000000000000000004006D
:104FD0000400040004000400000000000040000081
:104FE000000000000000002001C006003800400062
:104FF00000001F802040204020401F800000000053
:1050000010403FC000400000000018C02140224076
:1050100024401840000010802040244024401B8081
:10502000000002000D0011003FC0014000003C8064
:10503000244024402440238000001F80244024403A
:105040003440038000003000200027C038002000DA
:1050500000001B802440244024401B8000001C00D2
:1050600022C0224022401F800000000000000840B3
:1050700000000000000000000000046000000000CC
:105080000000000004000A001100208040400900D8
:1050900009000900090009000000000040402080CC
:1050A00011000A000400180020002340240018000A
:1050B00000001F802040274029401F400000004082
:1050C00007C039000F0001C0004020403FC024400D
:1050D00024401B8000001F80204020402040308062
:1050E000000020403FC0204020401F8000002040A2
:1050F0003FC024402E4030C0000020403FC024402C
:105100002E00300000000F0010802040224033802D
:10511000020020403FC0040004003FC02040204067
:1051200020403FC020402040000000602020202080
:105130003FC02000200020403FC024400B0030C072
:10514000204020403FC020400040004000C03FC001
:105150003C0003C03C003FC0000020403FC00C406A
:1051600023003FC020001F802040204020401F809F
:10517000000020403FC024402400180000001F8091
:105180002140214020E01FA0000020403FC02440DB
:10519000260019C0004018C024402440224031801D
:1051A0000000300020403FC02040300000002000C0
:1051B0003F80004000403F80200020003E0001C0B2
:1051C000070038002000380007C03C0007C0380046
:1051D0000000204039C0060039C0204000002000F7
:1051E000384007C0384020000000304021C0264031
:1051F000384020C00000000000007FE04020402038
:105200000000000070000C0003800040000000005F
:10521000402040207FE0000000000000200040000F
:10522000200000000000001000100010001000100E
:10523000001000000000400000000000000000001E
:1052400002800540054003C0004020003FC00440EC
:105250000440038000000000038004400440064036
:10526000000000000380044024403FC000400000D4
:1052700003800540054003400000000004401FC0BB
:10528000244024402000000002E005500550065054
:10529000042020403FC00440040003C00040000040
:1052A000044027C00040000000000010001004105F
:1052B00027E00000000020403FC00140070004C07C
:1052C0000440204020403FC000400040000007C094
:1052D000040007C0040003C00000044007C00440ED
:1052E000040003C000400000038004400440038029
:1052F0000000041007F00450044003800000000088
:1053000003800440045007F00010044007C002402E
:10531000040004000000000006400540054004C0F1
:105320000000000004001F80044000400000040052
:1053300007800040044007C000400400070004C08C
:10534000018006000400060001C0070001C006003D
:105350000000044006C0010006C004400000041024
:10536000071004E00180060004000000044005C0AE
:105370000640044000000000000004007BE04020E4
:105380000000000000000000FFF00000000000002E
:1053900040207BE00400000000004000800040004E
:1053A000200020004000000000000000000000007D
:1053B0000000000000000000000000001FCC000CF6
:1053C000000000000000000008003000600008003D
:1053D000300060000000022003FC1E20022003FCBD
:1053E0001E200220000000000E1811043FFF108450
:1053F0000C78000000000F0010840F3800C0077800
:1054000018840078000000780F8410C411240E98CE
:1054100000E400840008080068007000000000003C
:1054200000000000000000000000000007E0181865
:10543000200440020000000040022004181807E089
:105440000000000000000240024001800FF00180D7
:105450000240024000000080008000800FF80080C1
:105460000080008000000001000D000E0000000020
:10547000000000000000000000800080008000802C
:105480000080008000800000000C000C0000000084
:10549000000000000000000000060018006001800D
:1054A000060018002000000007F00808100410048F
:1054B000080807F000000000080408041FFC0004AE
:1054C00000040000000000000E0C10141024104412
:1054D00011840E0C000000000C18100411041104BB
:1054E00012880C700000000000E00320042408244F
:1054F0001FFC0024000000001F98108411041104F8
:10550000108810700000000007F0088811041104D2
:1055100018880070000000001C00100010FC130030
:105520001C001000000000000E381144108410848C
:1055300011440E38000000000700088C104410448D
:10554000088807F00000000000000000030C030CB6
:105550000000000000000000000000010106000043
:105560000000000000000000008001400220041044
:10557000080810040000022002200220022002205D
:10558000022002200000000010040808041002207D
:1055900001400080000000000E001200100C106C92
:1055A00010800F00000003E00C1813E4142417C44B
:1055B000082807D000000004003C03C41C4007403A
:1055C00000E4001C000410041FFC11041104110469
:1055D0000E880070000003E00C1810041004100482
:1055E00010081C10000010041FFC1004100410040C
:1055F000080807F0000010041FFC1104110417C470
:1056000010040818000010041FFC1104110017C03A
:1056100010000800000003E00C18100410041044EF
:105620001C780040000010041FFC108400800080E3
:1056300010841FFC10040000100410041FFC100450
:1056400010040000000000030001100110011FFE03
:1056500010001000000010041FFC110403801464EB
:10566000181C1004000010041FFC100400040004A7
:105670000004000C000010041FFC1F0000FC1F00B1
:105680001FFC1004000010041FFC0C04030000E0C9
:1056900010181FFC100007F0080810041004100474
:1056A000080807F0000010041FFC10841080108010
:1056B00010800F00000007F0081810241024101CA0
:1056C000080A07F2000010041FFC1104110011C0A9
:1056D00011300E0C000400000E1C11041084108404
:1056E00010441C3800001800100010041FFC1004A7
:1056F00010001800000010001FF81004000400043F
:1057000010041FF8100010001E0011E0001C0070B3
:1057100013801C0010001FC0103C00E01F0000E0C0
:10572000103C1FC000001004180C163401C001C04A
:105730001634180C100410001C00130400FC130491
:105740001C00100000000804101C106410841304D6
:105750001C04101800000000000000007FFE400242
:10576000400240020000000030000C000380006096
:10577000001C0003000000004002400240027FFEC7
:105780000000000000000000000020004000400079
:1057900040002000000000010001000100010001A4
:1057A0000001000100010000400040002000000056
:1057B00000000000000000000098012401440144A2
:1057C000014400FC000410001FFC008801040104D7
:1057D00000880070000000000070008801040104CF
:1057E000010400880000000000700088010401042A
:1057F00011081FFC0004000000F8014401440144AA
:10580000014400C800000000010401040FFC110461
:10581000110411001800000000D6012901290129F6
:1058200001C90106000010041FFC008401000100F2
:10583000010400FC000400000104190419FC000428
:105840000004000000000000000300010101190134
:1058500019FE0000000010041FFC0024004001B4E9
:10586000010C010400000000100410041FFC0004DF
:10587000000400000000010401FC0104010001FC1F
:105880000104010000FC010401FC0084010001008E
:10589000010400FC0004000000F8010401040104FC
:1058A000010400F80000010101FF0085010401046A
:1058B00000880070000000000070008801040104EE
:1058C000010501FF00010104010401FC0084010441
:1058D000010001800000000000CC0124012401240B
:1058E00001240198000000000100010007F80104F4
:1058F000010400000000010001F80004000400049D
:10590000010801FC0004010001800170000C00107E
:1059100001600180010001F0010C003001C0003085
:10592000010C01F0010000000104018C0074017001
:10593000018C01040000010101810171000E0018B9
:1059400001600180010000000184010C0134014468
:105950000184010C000000000000000000000100B4
:105960003EFC400240020000000000000000FFFF7B
:105970000000000000000000400240023EFC010068
:105980000000000000000000600080008000400077
:105990004000200020000000000000000000000087
:1059A00000000000000000000000000000000000F7
:1059B00000000000000000000000000000000000E7
:1059C0000000000000000000000F80380FFE380FBC
:1059D000803800000000000000000000000000000F
:1059E000000000000100000600000C00003800006C
:1059F0003100000600000C000038000030000000FC
:105A000000000000000061800067F807F980006175
:105A1000800061800061800061800067F807F98084
:105A200000618000000000000000000001C0E003F1
:105A3000E0F00630080418081FFFFE040E08078770
:105A4000F00381E000000000000001F000060C00FF
:105A5000040408060C7001F9C0000E00003BE000D1
:105A6000EC18070808040C180003E000000000010F
:105A7000E00007F003F818041C0804170807E1D039
:105A800003C0E00023B0003C080020080000100024
:105A900000000000000100003100003200001C0086
:105AA00000000000000000000000000000000000F6
:105AB00000000000000000000000000000000000E6
:105AC0000000000000007F0001FFC00780F00C0014
:105AD0001810000420000200000000000020000256
